{
  "contractName": "Lottery",
  "abi": [
    {
      "constant": true,
      "inputs": [],
      "name": "owner",
      "outputs": [
        {
          "name": "",
          "type": "address"
        }
      ],
      "payable": false,
      "stateMutability": "view",
      "type": "function"
    },
    {
      "inputs": [],
      "payable": false,
      "stateMutability": "nonpayable",
      "type": "constructor"
    },
    {
      "anonymous": false,
      "inputs": [
        {
          "indexed": false,
          "name": "index",
          "type": "uint256"
        },
        {
          "indexed": false,
          "name": "bettor",
          "type": "address"
        },
        {
          "indexed": false,
          "name": "amount",
          "type": "uint256"
        },
        {
          "indexed": false,
          "name": "challenges",
          "type": "bytes"
        },
        {
          "indexed": false,
          "name": "answerBlockNumber",
          "type": "uint256"
        }
      ],
      "name": "BET",
      "type": "event"
    },
    {
      "constant": true,
      "inputs": [],
      "name": "getPot",
      "outputs": [
        {
          "name": "pot",
          "type": "uint256"
        }
      ],
      "payable": false,
      "stateMutability": "view",
      "type": "function"
    },
    {
      "constant": false,
      "inputs": [
        {
          "name": "challenges",
          "type": "bytes"
        }
      ],
      "name": "bet",
      "outputs": [
        {
          "name": "",
          "type": "bool"
        }
      ],
      "payable": true,
      "stateMutability": "payable",
      "type": "function"
    },
    {
      "constant": true,
      "inputs": [
        {
          "name": "index",
          "type": "uint256"
        }
      ],
      "name": "getBetInfo",
      "outputs": [
        {
          "name": "answerBlockNumber",
          "type": "uint256"
        },
        {
          "name": "bettor",
          "type": "address"
        },
        {
          "name": "challenges",
          "type": "bytes"
        }
      ],
      "payable": false,
      "stateMutability": "view",
      "type": "function"
    }
  ],
  "bytecode": "0x608060405234801561001057600080fd5b5033600360006101000a81548173ffffffffffffffffffffffffffffffffffffffff021916908373ffffffffffffffffffffffffffffffffffffffff160217905550610820806100616000396000f3fe608060405260043610610062576000357c0100000000000000000000000000000000000000000000000000000000900463ffffffff168063403c9fa814610067578063599eac8a1461009257806379141f80146101655780638da5cb5b14610253575b600080fd5b34801561007357600080fd5b5061007c6102aa565b6040518082815260200191505060405180910390f35b61014b600480360360208110156100a857600080fd5b81019080803590602001906401000000008111156100c557600080fd5b8201836020820111156100d757600080fd5b803590602001918460018302840111640100000000831117156100f957600080fd5b91908080601f016020809104026020016040519081016040528093929190818152602001838380828437600081840152601f19601f8201169050808301925050505050505091929192905050506102b4565b604051808215151515815260200191505060405180910390f35b34801561017157600080fd5b5061019e6004803603602081101561018857600080fd5b81019080803590602001909291905050506104a9565b604051808481526020018373ffffffffffffffffffffffffffffffffffffffff1673ffffffffffffffffffffffffffffffffffffffff16815260200180602001828103825283818151815260200191508051906020019080838360005b838110156102165780820151818401526020810190506101fb565b50505050905090810190601f1680156102435780820380516001836020036101000a031916815260200191505b5094505050505060405180910390f35b34801561025f57600080fd5b506102686105f6565b604051808273ffffffffffffffffffffffffffffffffffffffff1673ffffffffffffffffffffffffffffffffffffffff16815260200191505060405180910390f35b6000600454905090565b60006611c37937e0800034141515610334576040517f08c379a00000000000000000000000000000000000000000000000000000000081526004018080602001828103825260108152602001807f6e6f7420656e6f756768206d6f6e65790000000000000000000000000000000081525060200191505060405180910390fd5b61033d8261061c565b15156103b1576040517f08c379a000000000000000000000000000000000000000000000000000000000815260040180806020018281038252601b8152602001807f6661696c656420746f2061646420746869732062657420696e666f000000000081525060200191505060405180910390fd5b7f2fd14896e96d250bb5049b83d0198fc7663c624bc855bd734f54a2d56cab236b600180540333348560034301604051808681526020018573ffffffffffffffffffffffffffffffffffffffff1673ffffffffffffffffffffffffffffffffffffffff16815260200184815260200180602001838152602001828103825284818151815260200191508051906020019080838360005b83811015610462578082015181840152602081019050610447565b50505050905090810190601f16801561048f5780820380516001836020036101000a031916815260200191505b50965050505050505060405180910390a160019050919050565b60008060606104b6610717565b6002600086815260200190815260200160002060606040519081016040529081600082015481526020016001820160009054906101000a900473ffffffffffffffffffffffffffffffffffffffff1673ffffffffffffffffffffffffffffffffffffffff1673ffffffffffffffffffffffffffffffffffffffff168152602001600282018054600181600116156101000203166002900480601f0160208091040260200160405190810160405280929190818152602001828054600181600116156101000203166002900480156105ce5780601f106105a3576101008083540402835291602001916105ce565b820191906000526020600020905b8154815290600101906020018083116105b157829003601f168201915b5050505050815250509050806000015193508060200151925080604001519150509193909250565b600360009054906101000a900473ffffffffffffffffffffffffffffffffffffffff1681565b6000610626610717565b6003430181600001818152505033816020019073ffffffffffffffffffffffffffffffffffffffff16908173ffffffffffffffffffffffffffffffffffffffff1681525050828160400181905250806002600060015481526020019081526020016000206000820151816000015560208201518160010160006101000a81548173ffffffffffffffffffffffffffffffffffffffff021916908373ffffffffffffffffffffffffffffffffffffffff16021790555060408201518160020190805190602001906106f792919061074f565b509050506001600081548092919060010191905055506001915050919050565b60606040519081016040528060008152602001600073ffffffffffffffffffffffffffffffffffffffff168152602001606081525090565b828054600181600116156101000203166002900490600052602060002090601f016020900481019282601f1061079057805160ff19168380011785556107be565b828001600101855582156107be579182015b828111156107bd5782518255916020019190600101906107a2565b5b5090506107cb91906107cf565b5090565b6107f191905b808211156107ed5760008160009055506001016107d5565b5090565b9056fea165627a7a72305820a28094e893ce6003cce0ea1ed44d5db5763532a0d41a1b109b7c25bd1029d3860029",
  "source": "// SPDX-License-Identifier: MIT\npragma solidity >=0.4.22 <0.9.0;\n\ncontract Lottery {\n\n    struct BetInfo {\n        uint256 answerBlockNumber;\n        address payable bettor;\n        bytes challenges;\n    }\n\n    uint256 private _head;          // queue 구조를 만들고, 이를 hashMap과 함께 사용\n    uint256 private _tail;\n    mapping(uint256 => BetInfo) private _bets;\n\n    address public owner;\n\n    uint256 constant internal BLOCK_LIMIT = 256;\n    uint256 constant internal BET_BLOCK_INTERVAL = 3;\n    uint256 constant internal BET_AMOUNT = 5 * 10**15;\n\n    uint256 private _pot;\n\n    event BET(uint256 index, address bettor, uint256 amount, bytes challenges, uint256 answerBlockNumber);\n\n    constructor() public {\n        owner = msg.sender;\n    }\n\n    function getPot() public view returns(uint256 pot) {\n        return _pot;\n    }\n\n    /**\n     * @dev 베팅을 한다. 유저는 0.005 이더를 보내고, 1바이트 글자를 보낸다\n     *  큐에 저장된 베팅정보는 이후 distribute 함수에서 해결된다\n     * @param challenges  유저가 보내는 1바이트 글자\n     * @return 함수가 잘 수행되어쓴지 확인하는 boolean 값\n     */\n    function bet(bytes memory challenges) public payable returns(bool) {\n        // check the proper ith is sent\n        require(msg.value == BET_AMOUNT, 'not enough money');\n\n        // push bet to the queue\n        require(pushBet(challenges), \"failed to add this bet info\");\n\n        // emit event, 이벤트 로그는 블록체인 함수로 호출하고 따로 모을 수 있음, web3.js 로 로그를 긁어올 수 있음, 프론트 만들면서 알 수 있음\n        emit BET(_tail-1, msg.sender, msg.value, challenges, block.number+BET_BLOCK_INTERVAL);\n\n        return true;\n    }\n\n    //distribute, check the answer, give the money to the winner\n\n    function getBetInfo(uint256 index) public view returns(uint256 answerBlockNumber, address bettor, bytes memory challenges) {\n        BetInfo memory b = _bets[index];\n        answerBlockNumber = b.answerBlockNumber;\n        bettor = b.bettor;\n        challenges = b.challenges;\n    }\n\n    function pushBet(bytes memory challenges) internal returns(bool) {    // 큐에 집어넣음\n        BetInfo memory b;\n        b.answerBlockNumber = block.number + BET_BLOCK_INTERVAL;\n        b.bettor = msg.sender;\n        b.challenges = challenges;\n\n        _bets[_tail] = b;\n        _tail++;\n\n        return true; \n    }\n\n    function popBet(uint256 index) internal returns(bool) {\n        delete _bets[index];\n        return true;\n    }\n}",
  "sourcePath": "/Users/oneal.oh/Documents/eth/inbox/lotteryDapp/contracts/Lottery.sol",
  "compiler": {
    "name": "solc",
    "version": "0.5.0+commit.1d4f565a.Emscripten.clang"
  },
  "schemaVersion": "3.0.1",
  "updatedAt": "2022-04-18T06:09:53.694Z",
  "devdoc": {
    "methods": {
      "bet(bytes)": {
        "details": "베팅을 한다. 유저는 0.005 이더를 보내고, 1바이트 글자를 보낸다 큐에 저장된 베팅정보는 이후 distribute 함수에서 해결된다",
        "params": {
          "challenges": "유저가 보내는 1바이트 글자"
        },
        "return": "함수가 잘 수행되어쓴지 확인하는 boolean 값"
      }
    }
  },
  "userdoc": {
    "methods": {}
  }
}