{
  "contractName": "Lottery",
  "abi": [
    {
      "constant": true,
      "inputs": [],
      "name": "owner",
      "outputs": [
        {
          "name": "",
          "type": "address"
        }
      ],
      "payable": false,
      "stateMutability": "view",
      "type": "function"
    },
    {
      "inputs": [],
      "payable": false,
      "stateMutability": "nonpayable",
      "type": "constructor"
    },
    {
      "anonymous": false,
      "inputs": [
        {
          "indexed": false,
          "name": "index",
          "type": "uint256"
        },
        {
          "indexed": false,
          "name": "bettor",
          "type": "address"
        },
        {
          "indexed": false,
          "name": "amount",
          "type": "uint256"
        },
        {
          "indexed": false,
          "name": "challenges",
          "type": "bytes1"
        },
        {
          "indexed": false,
          "name": "answerBlockNumber",
          "type": "uint256"
        }
      ],
      "name": "BET",
      "type": "event"
    },
    {
      "constant": true,
      "inputs": [],
      "name": "getPot",
      "outputs": [
        {
          "name": "pot",
          "type": "uint256"
        }
      ],
      "payable": false,
      "stateMutability": "view",
      "type": "function"
    },
    {
      "constant": false,
      "inputs": [
        {
          "name": "challenges",
          "type": "bytes1"
        }
      ],
      "name": "bet",
      "outputs": [
        {
          "name": "",
          "type": "bool"
        }
      ],
      "payable": true,
      "stateMutability": "payable",
      "type": "function"
    },
    {
      "constant": false,
      "inputs": [],
      "name": "distribute",
      "outputs": [],
      "payable": false,
      "stateMutability": "nonpayable",
      "type": "function"
    },
    {
      "constant": true,
      "inputs": [
        {
          "name": "challenges",
          "type": "bytes1"
        },
        {
          "name": "answer",
          "type": "bytes32"
        }
      ],
      "name": "isMatch",
      "outputs": [
        {
          "name": "",
          "type": "uint8"
        }
      ],
      "payable": false,
      "stateMutability": "pure",
      "type": "function"
    },
    {
      "constant": true,
      "inputs": [
        {
          "name": "index",
          "type": "uint256"
        }
      ],
      "name": "getBetInfo",
      "outputs": [
        {
          "name": "answerBlockNumber",
          "type": "uint256"
        },
        {
          "name": "bettor",
          "type": "address"
        },
        {
          "name": "challenges",
          "type": "bytes1"
        }
      ],
      "payable": false,
      "stateMutability": "view",
      "type": "function"
    }
  ],
  "bytecode": "0x608060405234801561001057600080fd5b5033600360006101000a81548173ffffffffffffffffffffffffffffffffffffffff021916908373ffffffffffffffffffffffffffffffffffffffff160217905550610d87806100616000396000f3fe608060405260043610610078576000357c0100000000000000000000000000000000000000000000000000000000900463ffffffff168063403c9fa81461007d57806379141f80146100a85780638da5cb5b1461017557806399a167d7146101cc578063e4fc6b6d14610255578063f4b46f5b1461026c575b600080fd5b34801561008957600080fd5b506100926102d4565b6040518082815260200191505060405180910390f35b3480156100b457600080fd5b506100e1600480360360208110156100cb57600080fd5b81019080803590602001909291905050506102de565b604051808481526020018373ffffffffffffffffffffffffffffffffffffffff1673ffffffffffffffffffffffffffffffffffffffff168152602001827effffffffffffffffffffffffffffffffffffffffffffffffffffffffffffff19167effffffffffffffffffffffffffffffffffffffffffffffffffffffffffffff19168152602001935050505060405180910390f35b34801561018157600080fd5b5061018a610403565b604051808273ffffffffffffffffffffffffffffffffffffffff1673ffffffffffffffffffffffffffffffffffffffff16815260200191505060405180910390f35b3480156101d857600080fd5b50610231600480360360408110156101ef57600080fd5b8101908080357effffffffffffffffffffffffffffffffffffffffffffffffffffffffffffff1916906020019092919080359060200190929190505050610429565b6040518082600281111561024157fe5b60ff16815260200191505060405180910390f35b34801561026157600080fd5b5061026a61076e565b005b6102ba6004803603602081101561028257600080fd5b8101908080357effffffffffffffffffffffffffffffffffffffffffffffffffffffffffffff19169060200190929190505050610908565b604051808215151515815260200191505060405180910390f35b6000600454905090565b60008060006102eb610d01565b6002600086815260200190815260200160002060606040519081016040529081600082015481526020016001820160009054906101000a900473ffffffffffffffffffffffffffffffffffffffff1673ffffffffffffffffffffffffffffffffffffffff1673ffffffffffffffffffffffffffffffffffffffff1681526020016001820160149054906101000a90047f0100000000000000000000000000000000000000000000000000000000000000027effffffffffffffffffffffffffffffffffffffffffffffffffffffffffffff19167effffffffffffffffffffffffffffffffffffffffffffffffffffffffffffff1916815250509050806000015193508060200151925080604001519150509193909250565b600360009054906101000a900473ffffffffffffffffffffffffffffffffffffffff1681565b6000808390506000849050600084600060208110151561044557fe5b1a7f0100000000000000000000000000000000000000000000000000000000000000029050600085600060208110151561047b57fe5b1a7f01000000000000000000000000000000000000000000000000000000000000000290506004847effffffffffffffffffffffffffffffffffffffffffffffffffffffffffffff1916908060020a820491505093506004847effffffffffffffffffffffffffffffffffffffffffffffffffffffffffffff19169060020a0293506004827effffffffffffffffffffffffffffffffffffffffffffffffffffffffffffff1916908060020a820491505091506004827effffffffffffffffffffffffffffffffffffffffffffffffffffffffffffff19169060020a0291506004837effffffffffffffffffffffffffffffffffffffffffffffffffffffffffffff19169060020a0292506004837effffffffffffffffffffffffffffffffffffffffffffffffffffffffffffff1916908060020a820491505092506004817effffffffffffffffffffffffffffffffffffffffffffffffffffffffffffff19169060020a0290506004817effffffffffffffffffffffffffffffffffffffffffffffffffffffffffffff1916908060020a82049150509050817effffffffffffffffffffffffffffffffffffffffffffffffffffffffffffff1916847effffffffffffffffffffffffffffffffffffffffffffffffffffffffffffff19161480156106aa5750807effffffffffffffffffffffffffffffffffffffffffffffffffffffffffffff1916837effffffffffffffffffffffffffffffffffffffffffffffffffffffffffffff1916145b156106bc576001945050505050610768565b817effffffffffffffffffffffffffffffffffffffffffffffffffffffffffffff1916847effffffffffffffffffffffffffffffffffffffffffffffffffffffffffffff191614806107515750807effffffffffffffffffffffffffffffffffffffffffffffffffffffffffffff1916837effffffffffffffffffffffffffffffffffffffffffffffffffffffffffffff1916145b15610763576002945050505050610768565b505050505b92915050565b6000610778610d01565b6000805492505b600154831015610903576002600084815260200190815260200160002060606040519081016040529081600082015481526020016001820160009054906101000a900473ffffffffffffffffffffffffffffffffffffffff1673ffffffffffffffffffffffffffffffffffffffff1673ffffffffffffffffffffffffffffffffffffffff1681526020016001820160149054906101000a90047f0100000000000000000000000000000000000000000000000000000000000000027effffffffffffffffffffffffffffffffffffffffffffffffffffffffffffff19167effffffffffffffffffffffffffffffffffffffffffffffffffffffffffffff19168152505091506108918260000151610adc565b9050600060028111156108a057fe5b8160028111156108ac57fe5b5050600160028111156108bb57fe5b8160028111156108c757fe5b14156108d257610903565b6002808111156108de57fe5b8160028111156108ea57fe5b50506108f583610b37565b50828060010193505061077f565b505050565b60006611c37937e0800034141515610988576040517f08c379a00000000000000000000000000000000000000000000000000000000081526004018080602001828103825260108152602001807f6e6f7420656e6f756768206d6f6e65790000000000000000000000000000000081525060200191505060405180910390fd5b61099182610b9b565b1515610a05576040517f08c379a000000000000000000000000000000000000000000000000000000000815260040180806020018281038252601b8152602001807f6661696c656420746f2061646420746869732062657420696e666f000000000081525060200191505060405180910390fd5b7f100791de9f40bf2d56ffa6dc5597d2fd0b2703ea70bc7548cd74c04f5d215ab7600180540333348560034301604051808681526020018573ffffffffffffffffffffffffffffffffffffffff1673ffffffffffffffffffffffffffffffffffffffff168152602001848152602001837effffffffffffffffffffffffffffffffffffffffffffffffffffffffffffff19167effffffffffffffffffffffffffffffffffffffffffffffffffffffffffffff191681526020018281526020019550505050505060405180910390a160019050919050565b60008143118015610af05750816101004303105b15610afe5760009050610b32565b8143111515610b105760019050610b32565b8143118015610b23575081610100430310155b15610b315760029050610b32565b5b919050565b6000600260008381526020019081526020016000206000808201600090556001820160006101000a81549073ffffffffffffffffffffffffffffffffffffffff02191690556001820160146101000a81549060ff0219169055505060019050919050565b6000610ba5610d01565b6003430181600001818152505033816020019073ffffffffffffffffffffffffffffffffffffffff16908173ffffffffffffffffffffffffffffffffffffffff16815250508281604001907effffffffffffffffffffffffffffffffffffffffffffffffffffffffffffff191690817effffffffffffffffffffffffffffffffffffffffffffffffffffffffffffff191681525050806002600060015481526020019081526020016000206000820151816000015560208201518160010160006101000a81548173ffffffffffffffffffffffffffffffffffffffff021916908373ffffffffffffffffffffffffffffffffffffffff16021790555060408201518160010160146101000a81548160ff02191690837f0100000000000000000000000000000000000000000000000000000000000000900402179055509050506001600081548092919060010191905055506001915050919050565b60606040519081016040528060008152602001600073ffffffffffffffffffffffffffffffffffffffff16815260200160007effffffffffffffffffffffffffffffffffffffffffffffffffffffffffffff19168152509056fea165627a7a723058202917c5d25d2d640c88e0f22c6caf253840ca2bccb56df9a93612e47f2404347b0029",
  "source": "// SPDX-License-Identifier: MIT\npragma solidity >=0.4.22 <0.9.0;\n\ncontract Lottery {\n\n    struct BetInfo {\n        uint256 answerBlockNumber;\n        address payable bettor;\n        bytes1 challenges;\n    }\n\n    uint256 private _head;          // queue 구조를 만들고, 이를 hashMap과 함께 사용\n    uint256 private _tail;\n    mapping(uint256 => BetInfo) private _bets;\n\n    address public owner;\n\n    uint256 constant internal BLOCK_LIMIT = 256;\n    uint256 constant internal BET_BLOCK_INTERVAL = 3;\n    uint256 constant internal BET_AMOUNT = 5 * 10**15;\n\n    uint256 private _pot;\n\n    event BET(uint256 index, address bettor, uint256 amount, bytes1 challenges, uint256 answerBlockNumber);\n\n    enum BlockStatus {Checkable, NotRevealed, BlockLimitPassed}\n    enum BettingResult {Fail, Win, Draw}\n\n    constructor() public {\n        owner = msg.sender;\n    }\n\n    function getPot() public view returns(uint256 pot) {\n        return _pot;\n    }\n\n    /**\n     * @dev 베팅을 한다. 유저는 0.005 이더를 보내고, 1바이트 글자를 보낸다\n     *  큐에 저장된 베팅정보는 이후 distribute 함수에서 해결된다\n     * @param challenges  유저가 보내는 1바이트 글자\n     * @return 함수가 잘 수행되어쓴지 확인하는 boolean 값\n     */\n    function bet(bytes1 challenges) public payable returns(bool) {    // 트랜잭션 기본 가스량 21000 가스\n        // check the proper ith is sent\n        require(msg.value == BET_AMOUNT, 'not enough money');\n\n        // push bet to the queue\n        require(pushBet(challenges), \"failed to add this bet info\");    // 60000가스\n\n        // emit event, 이벤트 로그는 블록체인 함수로 호출하고 따로 모을 수 있음, web3.js 로 로그를 긁어올 수 있음, 프론트 만들면서 알 수 있음\n        emit BET(_tail-1, msg.sender, msg.value, challenges, block.number+BET_BLOCK_INTERVAL);  // emit 자체가 375가스, 파라미터 등등 4~5000 가스 \n\n        return true;\n    }\n\n    // distribute\n\n    function distribute() public {\n        uint256 cur;\n        BetInfo memory b;\n        BlockStatus currentBlockStatus;\n\n        for(cur=_head; cur<_tail; cur++) {\n            b = _bets[cur];\n            currentBlockStatus = getBlockStatus(b.answerBlockNumber);\n\n            //checkable: block.number > answerBlockNumber && block.number - BLOCK_LIMIT <= answerBlockNumber\n            if (currentBlockStatus == BlockStatus.Checkable) {\n                // if win, bettor gets pot money\n\n                // if fail, bettor's money goes to pot\n\n                // if draw, refund bettor's money\n            }\n            //not revealed\n            if (currentBlockStatus == BlockStatus.NotRevealed) {\n                break;\n            }\n            //block limit passed\n            if (currentBlockStatus == BlockStatus.BlockLimitPassed) {\n                //refund\n                //emit refund\n\n            }\n            popBet(cur);\n\n\n        }\n    }\n\n    function getBlockStatus(uint256 answerBlockNumber) internal view returns(BlockStatus) {\n        //  현재 블록에서, 큐에 담겨있는 베팅의 당첨 여부를 알 수 있는 경우\n        if (block.number > answerBlockNumber && block.number - BLOCK_LIMIT < answerBlockNumber) {\n            return BlockStatus.Checkable;\n        }\n\n        // 현재 블록이 생성중이라 당첨 여부를 알려 줄 수 없음\n        if (block.number <= answerBlockNumber) {\n            return BlockStatus.NotRevealed;\n        }\n\n        // 너무 옛날 블록에 적힌 베팅 정보라 당첨 여부를 알려 줄 수 없음\n        if (block.number > answerBlockNumber && block.number - BLOCK_LIMIT >= answerBlockNumber) {\n            return BlockStatus.BlockLimitPassed;\n        }\n    }\n\n    /**\n     * @dev 정답확인\n     * @param challenges  베팅 글자\n     * @param answer 블록해쉬값\n     * @return 정답결과\n     */\n    function isMatch(bytes1 challenges, bytes32 answer) public pure returns(BettingResult) {\n        bytes1 c1 = challenges;\n        bytes1 c2 = challenges;\n\n        bytes1 a1 = answer[0];\n        bytes1 a2 = answer[0];\n\n        c1 = c1 >> 4; // 0xab -> 0x0a\n        c1 = c1 << 4; // 0x0a -> 0xa0\n\n        a1 = a1 >> 4;\n        a1 = a1 << 4;\n\n        c2 = c2 << 4; // 0xab -> 0xb0\n        c2 = c2 >> 4; // 0xb0 -> 0x0b\n\n        a2 = a2 << 4;\n        a2 = a2 >> 4;\n\n        if (c1 == a1 && c2 == a2) {\n            return BettingResult.Win;\n        }\n\n        if (c1 == a1 || c2 == a2) {\n            return BettingResult.Draw;\n        }\n\n    }\n\n    //distribute, check the answer, give the money to the winner\n\n    function getBetInfo(uint256 index) public view returns(uint256 answerBlockNumber, address bettor, bytes1 challenges) {\n        BetInfo memory b = _bets[index];\n        answerBlockNumber = b.answerBlockNumber;\n        bettor = b.bettor;\n        challenges = b.challenges;\n    }\n\n    function pushBet(bytes1 challenges) internal returns(bool) {    // 큐에 집어넣음, 총 60000가스\n        BetInfo memory b;\n        b.answerBlockNumber = block.number + BET_BLOCK_INTERVAL;    // 32bytes  20000 가스\n        b.bettor = msg.sender;                                      // 20bytes  20000 가스\n        b.challenges = challenges;                                  // byte\n\n        _bets[_tail] = b;   // 위의 변수들이 실제로 블록에 저장되는 연산\n        _tail++;            // 32bytes  20000 가스\n\n        return true; \n    }\n\n    function popBet(uint256 index) internal returns(bool) {\n        delete _bets[index];\n        return true;\n    }\n}",
  "sourcePath": "/Users/oneal.oh/Documents/eth/inbox/lotteryDapp/contracts/Lottery.sol",
  "compiler": {
    "name": "solc",
    "version": "0.5.0+commit.1d4f565a.Emscripten.clang"
  },
  "schemaVersion": "3.0.1",
  "updatedAt": "2022-04-18T10:44:54.304Z",
  "devdoc": {
    "methods": {
      "bet(bytes1)": {
        "details": "베팅을 한다. 유저는 0.005 이더를 보내고, 1바이트 글자를 보낸다 큐에 저장된 베팅정보는 이후 distribute 함수에서 해결된다",
        "params": {
          "challenges": "유저가 보내는 1바이트 글자"
        },
        "return": "함수가 잘 수행되어쓴지 확인하는 boolean 값"
      },
      "isMatch(bytes1,bytes32)": {
        "details": "정답확인",
        "params": {
          "answer": "블록해쉬값",
          "challenges": "베팅 글자"
        },
        "return": "정답결과"
      }
    }
  },
  "userdoc": {
    "methods": {}
  }
}