{
  "contractName": "Lottery",
  "abi": [
    {
      "constant": true,
      "inputs": [],
      "name": "answerForTest",
      "outputs": [
        {
          "name": "",
          "type": "bytes32"
        }
      ],
      "payable": false,
      "stateMutability": "view",
      "type": "function"
    },
    {
      "constant": true,
      "inputs": [],
      "name": "owner",
      "outputs": [
        {
          "name": "",
          "type": "address"
        }
      ],
      "payable": false,
      "stateMutability": "view",
      "type": "function"
    },
    {
      "inputs": [],
      "payable": false,
      "stateMutability": "nonpayable",
      "type": "constructor"
    },
    {
      "anonymous": false,
      "inputs": [
        {
          "indexed": false,
          "name": "index",
          "type": "uint256"
        },
        {
          "indexed": false,
          "name": "bettor",
          "type": "address"
        },
        {
          "indexed": false,
          "name": "amount",
          "type": "uint256"
        },
        {
          "indexed": false,
          "name": "challenges",
          "type": "bytes1"
        },
        {
          "indexed": false,
          "name": "answerBlockNumber",
          "type": "uint256"
        }
      ],
      "name": "BET",
      "type": "event"
    },
    {
      "anonymous": false,
      "inputs": [
        {
          "indexed": false,
          "name": "index",
          "type": "uint256"
        },
        {
          "indexed": false,
          "name": "bettor",
          "type": "address"
        },
        {
          "indexed": false,
          "name": "amount",
          "type": "uint256"
        },
        {
          "indexed": false,
          "name": "challenges",
          "type": "bytes1"
        },
        {
          "indexed": false,
          "name": "answer",
          "type": "bytes1"
        },
        {
          "indexed": false,
          "name": "answerBlockNumber",
          "type": "uint256"
        }
      ],
      "name": "WIN",
      "type": "event"
    },
    {
      "anonymous": false,
      "inputs": [
        {
          "indexed": false,
          "name": "index",
          "type": "uint256"
        },
        {
          "indexed": false,
          "name": "bettor",
          "type": "address"
        },
        {
          "indexed": false,
          "name": "amount",
          "type": "uint256"
        },
        {
          "indexed": false,
          "name": "challenges",
          "type": "bytes1"
        },
        {
          "indexed": false,
          "name": "answer",
          "type": "bytes1"
        },
        {
          "indexed": false,
          "name": "answerBlockNumber",
          "type": "uint256"
        }
      ],
      "name": "FAIL",
      "type": "event"
    },
    {
      "anonymous": false,
      "inputs": [
        {
          "indexed": false,
          "name": "index",
          "type": "uint256"
        },
        {
          "indexed": false,
          "name": "bettor",
          "type": "address"
        },
        {
          "indexed": false,
          "name": "amount",
          "type": "uint256"
        },
        {
          "indexed": false,
          "name": "challenges",
          "type": "bytes1"
        },
        {
          "indexed": false,
          "name": "answer",
          "type": "bytes1"
        },
        {
          "indexed": false,
          "name": "answerBlockNumber",
          "type": "uint256"
        }
      ],
      "name": "DRAW",
      "type": "event"
    },
    {
      "anonymous": false,
      "inputs": [
        {
          "indexed": false,
          "name": "index",
          "type": "uint256"
        },
        {
          "indexed": false,
          "name": "bettor",
          "type": "address"
        },
        {
          "indexed": false,
          "name": "amount",
          "type": "uint256"
        },
        {
          "indexed": false,
          "name": "challenges",
          "type": "bytes1"
        },
        {
          "indexed": false,
          "name": "answerBlockNumber",
          "type": "uint256"
        }
      ],
      "name": "REFUND",
      "type": "event"
    },
    {
      "constant": true,
      "inputs": [],
      "name": "getPot",
      "outputs": [
        {
          "name": "pot",
          "type": "uint256"
        }
      ],
      "payable": false,
      "stateMutability": "view",
      "type": "function"
    },
    {
      "constant": false,
      "inputs": [
        {
          "name": "challenges",
          "type": "bytes1"
        }
      ],
      "name": "bet",
      "outputs": [
        {
          "name": "",
          "type": "bool"
        }
      ],
      "payable": true,
      "stateMutability": "payable",
      "type": "function"
    },
    {
      "constant": false,
      "inputs": [],
      "name": "distribute",
      "outputs": [],
      "payable": false,
      "stateMutability": "nonpayable",
      "type": "function"
    },
    {
      "constant": false,
      "inputs": [
        {
          "name": "answer",
          "type": "bytes32"
        }
      ],
      "name": "setAnswerForTest",
      "outputs": [
        {
          "name": "result",
          "type": "bool"
        }
      ],
      "payable": false,
      "stateMutability": "nonpayable",
      "type": "function"
    },
    {
      "constant": true,
      "inputs": [
        {
          "name": "challenges",
          "type": "bytes1"
        },
        {
          "name": "answer",
          "type": "bytes32"
        }
      ],
      "name": "isMatch",
      "outputs": [
        {
          "name": "",
          "type": "uint8"
        }
      ],
      "payable": false,
      "stateMutability": "pure",
      "type": "function"
    },
    {
      "constant": true,
      "inputs": [
        {
          "name": "index",
          "type": "uint256"
        }
      ],
      "name": "getBetInfo",
      "outputs": [
        {
          "name": "answerBlockNumber",
          "type": "uint256"
        },
        {
          "name": "bettor",
          "type": "address"
        },
        {
          "name": "challenges",
          "type": "bytes1"
        }
      ],
      "payable": false,
      "stateMutability": "view",
      "type": "function"
    }
  ],
  "bytecode": "0x60806040526000600560006101000a81548160ff02191690831515021790555034801561002b57600080fd5b5033600360006101000a81548173ffffffffffffffffffffffffffffffffffffffff021916908373ffffffffffffffffffffffffffffffffffffffff1602179055506115d38061007c6000396000f3fe60806040526004361061008e576000357c0100000000000000000000000000000000000000000000000000000000900463ffffffff168063403c9fa8146100935780637009fa36146100be57806379141f801461011157806384f7e4f0146101de5780638da5cb5b1461020957806399a167d714610260578063e4fc6b6d146102e9578063f4b46f5b14610300575b600080fd5b34801561009f57600080fd5b506100a8610368565b6040518082815260200191505060405180910390f35b3480156100ca57600080fd5b506100f7600480360360208110156100e157600080fd5b8101908080359060200190929190505050610372565b604051808215151515815260200191505060405180910390f35b34801561011d57600080fd5b5061014a6004803603602081101561013457600080fd5b810190808035906020019092919050505061046f565b604051808481526020018373ffffffffffffffffffffffffffffffffffffffff1673ffffffffffffffffffffffffffffffffffffffff168152602001827effffffffffffffffffffffffffffffffffffffffffffffffffffffffffffff19167effffffffffffffffffffffffffffffffffffffffffffffffffffffffffffff19168152602001935050505060405180910390f35b3480156101ea57600080fd5b506101f3610594565b6040518082815260200191505060405180910390f35b34801561021557600080fd5b5061021e61059a565b604051808273ffffffffffffffffffffffffffffffffffffffff1673ffffffffffffffffffffffffffffffffffffffff16815260200191505060405180910390f35b34801561026c57600080fd5b506102c56004803603604081101561028357600080fd5b8101908080357effffffffffffffffffffffffffffffffffffffffffffffffffffffffffffff19169060200190929190803590602001909291905050506105c0565b604051808260028111156102d557fe5b60ff16815260200191505060405180910390f35b3480156102f557600080fd5b506102fe610905565b005b61034e6004803603602081101561031657600080fd5b8101908080357effffffffffffffffffffffffffffffffffffffffffffffffffffffffffffff19169060200190929190505050611063565b604051808215151515815260200191505060405180910390f35b6000600454905090565b6000600360009054906101000a900473ffffffffffffffffffffffffffffffffffffffff1673ffffffffffffffffffffffffffffffffffffffff163373ffffffffffffffffffffffffffffffffffffffff1614151561045f576040517f08c379a000000000000000000000000000000000000000000000000000000000815260040180806020018281038252602b8152602001807f4f6e6c79206f776e65722063616e207365742074686520616e7377657220666f81526020017f722074657374206d6f646500000000000000000000000000000000000000000081525060400191505060405180910390fd5b8160068190555060019050919050565b600080600061047c61154d565b6002600086815260200190815260200160002060606040519081016040529081600082015481526020016001820160009054906101000a900473ffffffffffffffffffffffffffffffffffffffff1673ffffffffffffffffffffffffffffffffffffffff1673ffffffffffffffffffffffffffffffffffffffff1681526020016001820160149054906101000a90047f0100000000000000000000000000000000000000000000000000000000000000027effffffffffffffffffffffffffffffffffffffffffffffffffffffffffffff19167effffffffffffffffffffffffffffffffffffffffffffffffffffffffffffff1916815250509050806000015193508060200151925080604001519150509193909250565b60065481565b600360009054906101000a900473ffffffffffffffffffffffffffffffffffffffff1681565b600080839050600084905060008460006020811015156105dc57fe5b1a7f0100000000000000000000000000000000000000000000000000000000000000029050600085600060208110151561061257fe5b1a7f01000000000000000000000000000000000000000000000000000000000000000290506004847effffffffffffffffffffffffffffffffffffffffffffffffffffffffffffff1916908060020a820491505093506004847effffffffffffffffffffffffffffffffffffffffffffffffffffffffffffff19169060020a0293506004827effffffffffffffffffffffffffffffffffffffffffffffffffffffffffffff1916908060020a820491505091506004827effffffffffffffffffffffffffffffffffffffffffffffffffffffffffffff19169060020a0291506004837effffffffffffffffffffffffffffffffffffffffffffffffffffffffffffff19169060020a0292506004837effffffffffffffffffffffffffffffffffffffffffffffffffffffffffffff1916908060020a820491505092506004817effffffffffffffffffffffffffffffffffffffffffffffffffffffffffffff19169060020a0290506004817effffffffffffffffffffffffffffffffffffffffffffffffffffffffffffff1916908060020a82049150509050817effffffffffffffffffffffffffffffffffffffffffffffffffffffffffffff1916847effffffffffffffffffffffffffffffffffffffffffffffffffffffffffffff19161480156108415750807effffffffffffffffffffffffffffffffffffffffffffffffffffffffffffff1916837effffffffffffffffffffffffffffffffffffffffffffffffffffffffffffff1916145b156108535760019450505050506108ff565b817effffffffffffffffffffffffffffffffffffffffffffffffffffffffffffff1916847effffffffffffffffffffffffffffffffffffffffffffffffffffffffffffff191614806108e85750807effffffffffffffffffffffffffffffffffffffffffffffffffffffffffffff1916837effffffffffffffffffffffffffffffffffffffffffffffffffffffffffffff1916145b156108fa5760029450505050506108ff565b505050505b92915050565b60008061091061154d565b60008060005494505b600154851015611055576002600086815260200190815260200160002060606040519081016040529081600082015481526020016001820160009054906101000a900473ffffffffffffffffffffffffffffffffffffffff1673ffffffffffffffffffffffffffffffffffffffff1673ffffffffffffffffffffffffffffffffffffffff1681526020016001820160149054906101000a90047f0100000000000000000000000000000000000000000000000000000000000000027effffffffffffffffffffffffffffffffffffffffffffffffffffffffffffff19167effffffffffffffffffffffffffffffffffffffffffffffffffffffffffffff1916815250509250610a2b8360000151611237565b915060006002811115610a3a57fe5b826002811115610a4657fe5b1415610f11576000610a5b8460000151611292565b9050610a6b8460400151826105c0565b915060016002811115610a7a57fe5b826002811115610a8657fe5b1415610c0057610aa584602001516611c37937e08000600454016112ba565b945060006004819055507f8219079e2d6c1192fb0ff7f78e6faaf5528ad6687e69749205d87bd4b156912b868560200151878760400151856000602081101515610aeb57fe5b1a7f0100000000000000000000000000000000000000000000000000000000000000028960000151604051808781526020018673ffffffffffffffffffffffffffffffffffffffff1673ffffffffffffffffffffffffffffffffffffffff168152602001858152602001847effffffffffffffffffffffffffffffffffffffffffffffffffffffffffffff19167effffffffffffffffffffffffffffffffffffffffffffffffffffffffffffff19168152602001837effffffffffffffffffffffffffffffffffffffffffffffffffffffffffffff19167effffffffffffffffffffffffffffffffffffffffffffffffffffffffffffff19168152602001828152602001965050505050505060405180910390a15b60006002811115610c0d57fe5b826002811115610c1957fe5b1415610d88576611c37937e080006004600082825401925050819055507f3b19d607433249d2ebc766ae82ca3848e9c064f1febb5147bc6e5b21d0adebc586856020015160008760400151856000602081101515610c7357fe5b1a7f0100000000000000000000000000000000000000000000000000000000000000028960000151604051808781526020018673ffffffffffffffffffffffffffffffffffffffff1673ffffffffffffffffffffffffffffffffffffffff168152602001858152602001847effffffffffffffffffffffffffffffffffffffffffffffffffffffffffffff19167effffffffffffffffffffffffffffffffffffffffffffffffffffffffffffff19168152602001837effffffffffffffffffffffffffffffffffffffffffffffffffffffffffffff19167effffffffffffffffffffffffffffffffffffffffffffffffffffffffffffff19168152602001828152602001965050505050505060405180910390a15b60016002811115610d9557fe5b826002811115610da157fe5b1415610f0f57610dbc84602001516611c37937e080006112ba565b94507f72ec2e949e4fad9380f9d5db3e2ed0e71cf22c51d8d66424508bdc761a3f4b0e868560200151878760400151856000602081101515610dfa57fe5b1a7f0100000000000000000000000000000000000000000000000000000000000000028960000151604051808781526020018673ffffffffffffffffffffffffffffffffffffffff1673ffffffffffffffffffffffffffffffffffffffff168152602001858152602001847effffffffffffffffffffffffffffffffffffffffffffffffffffffffffffff19167effffffffffffffffffffffffffffffffffffffffffffffffffffffffffffff19168152602001837effffffffffffffffffffffffffffffffffffffffffffffffffffffffffffff19167effffffffffffffffffffffffffffffffffffffffffffffffffffffffffffff19168152602001828152602001965050505050505060405180910390a15b505b60016002811115610f1e57fe5b826002811115610f2a57fe5b1415610f3557611055565b600280811115610f4157fe5b826002811115610f4d57fe5b141561103e57610f6883602001516611c37937e080006112ba565b93507f59c0185881271a0f53d43e6ab9310091408f9e0ff9ae2512613de800f26b8de48584602001518686604001518760000151604051808681526020018573ffffffffffffffffffffffffffffffffffffffff1673ffffffffffffffffffffffffffffffffffffffff168152602001848152602001837effffffffffffffffffffffffffffffffffffffffffffffffffffffffffffff19167effffffffffffffffffffffffffffffffffffffffffffffffffffffffffffff191681526020018281526020019550505050505060405180910390a15b61104785611383565b508480600101955050610919565b846000819055505050505050565b60006611c37937e08000341415156110e3576040517f08c379a00000000000000000000000000000000000000000000000000000000081526004018080602001828103825260108152602001807f6e6f7420656e6f756768206d6f6e65790000000000000000000000000000000081525060200191505060405180910390fd5b6110ec826113e7565b1515611160576040517f08c379a000000000000000000000000000000000000000000000000000000000815260040180806020018281038252601b8152602001807f6661696c656420746f2061646420746869732062657420696e666f000000000081525060200191505060405180910390fd5b7f100791de9f40bf2d56ffa6dc5597d2fd0b2703ea70bc7548cd74c04f5d215ab7600180540333348560034301604051808681526020018573ffffffffffffffffffffffffffffffffffffffff1673ffffffffffffffffffffffffffffffffffffffff168152602001848152602001837effffffffffffffffffffffffffffffffffffffffffffffffffffffffffffff19167effffffffffffffffffffffffffffffffffffffffffffffffffffffffffffff191681526020018281526020019550505050505060405180910390a160019050919050565b6000814311801561124b5750816101004303105b15611259576000905061128d565b814311151561126b576001905061128d565b814311801561127e575081610100430310155b1561128c576002905061128d565b5b919050565b6000600560009054906101000a900460ff166112b0576006546112b3565b81405b9050919050565b60008060009050600081840390508473ffffffffffffffffffffffffffffffffffffffff166108fc829081150290604051600060405180830381858888f1935050505015801561130e573d6000803e3d6000fd5b50600360009054906101000a900473ffffffffffffffffffffffffffffffffffffffff1673ffffffffffffffffffffffffffffffffffffffff166108fc839081150290604051600060405180830381858888f19350505050158015611377573d6000803e3d6000fd5b50809250505092915050565b6000600260008381526020019081526020016000206000808201600090556001820160006101000a81549073ffffffffffffffffffffffffffffffffffffffff02191690556001820160146101000a81549060ff0219169055505060019050919050565b60006113f161154d565b6003430181600001818152505033816020019073ffffffffffffffffffffffffffffffffffffffff16908173ffffffffffffffffffffffffffffffffffffffff16815250508281604001907effffffffffffffffffffffffffffffffffffffffffffffffffffffffffffff191690817effffffffffffffffffffffffffffffffffffffffffffffffffffffffffffff191681525050806002600060015481526020019081526020016000206000820151816000015560208201518160010160006101000a81548173ffffffffffffffffffffffffffffffffffffffff021916908373ffffffffffffffffffffffffffffffffffffffff16021790555060408201518160010160146101000a81548160ff02191690837f0100000000000000000000000000000000000000000000000000000000000000900402179055509050506001600081548092919060010191905055506001915050919050565b60606040519081016040528060008152602001600073ffffffffffffffffffffffffffffffffffffffff16815260200160007effffffffffffffffffffffffffffffffffffffffffffffffffffffffffffff19168152509056fea165627a7a7230582063e5a617c28843e728dfb565b8841969b5c38efe5cc3279c72e79922c201294e0029",
  "source": "// SPDX-License-Identifier: MIT\npragma solidity >=0.4.22 <0.9.0;\n\ncontract Lottery {\n\n    struct BetInfo {\n        uint256 answerBlockNumber;\n        address payable bettor;\n        bytes1 challenges;\n    }\n\n    uint256 private _head;          // queue 구조를 만들고, 이를 hashMap과 함께 사용\n    uint256 private _tail;\n    mapping(uint256 => BetInfo) private _bets;\n\n    address payable public owner;\n\n    uint256 constant internal BLOCK_LIMIT = 256;\n    uint256 constant internal BET_BLOCK_INTERVAL = 3;\n    uint256 constant internal BET_AMOUNT = 5 * 10**15;\n\n    uint256 private _pot;\n    bool private mode = false; // false: use answer for test, true: use real block hash\n    bytes32 public answerForTest;\n\n    event BET(uint256 index, address bettor, uint256 amount, bytes1 challenges, uint256 answerBlockNumber);\n    event WIN(uint256 index, address bettor, uint256 amount, bytes1 challenges, bytes1 answer, uint256 answerBlockNumber);\n    event FAIL(uint256 index, address bettor, uint256 amount, bytes1 challenges, bytes1 answer, uint256 answerBlockNumber);\n    event DRAW(uint256 index, address bettor, uint256 amount, bytes1 challenges, bytes1 answer, uint256 answerBlockNumber);\n    event REFUND(uint256 index, address bettor, uint256 amount, bytes1 challenges, uint256 answerBlockNumber);\n\n    enum BlockStatus {Checkable, NotRevealed, BlockLimitPassed}\n    enum BettingResult {Fail, Win, Draw}\n\n    constructor() public {\n        owner = msg.sender;\n    }\n\n    function getPot() public view returns(uint256 pot) {\n        return _pot;\n    }\n\n    /**\n     * @dev 베팅을 한다. 유저는 0.005 이더를 보내고, 1바이트 글자를 보낸다\n     *  큐에 저장된 베팅정보는 이후 distribute 함수에서 해결된다\n     * @param challenges  유저가 보내는 1바이트 글자\n     * @return 함수가 잘 수행되어쓴지 확인하는 boolean 값\n     */\n    function bet(bytes1 challenges) public payable returns(bool) {    // 트랜잭션 기본 가스량 21000 가스\n        // check the proper ith is sent\n        require(msg.value == BET_AMOUNT, 'not enough money');\n\n        // push bet to the queue\n        require(pushBet(challenges), \"failed to add this bet info\");    // 60000가스\n\n        // emit event, 이벤트 로그는 블록체인 함수로 호출하고 따로 모을 수 있음, web3.js 로 로그를 긁어올 수 있음, 프론트 만들면서 알 수 있음\n        emit BET(_tail-1, msg.sender, msg.value, challenges, block.number+BET_BLOCK_INTERVAL);  // emit 자체가 375가스, 파라미터 등등 4~5000 가스 \n\n        return true;\n    }\n\n    /**\n     * @dev 베팅결과값을 확인하고 팟머니를 분배\n     *  WIN, FAIL, DRAW 에 따른 분배\n     */\n    function distribute() public {\n        uint256 cur;\n        uint256 transferAmount;\n        BetInfo memory b;\n        BlockStatus currentBlockStatus;\n        BettingResult currentBettingResult;\n\n        for(cur=_head; cur<_tail; cur++) {\n            b = _bets[cur];\n            currentBlockStatus = getBlockStatus(b.answerBlockNumber);\n\n            //checkable: block.number > answerBlockNumber && block.number - BLOCK_LIMIT <= answerBlockNumber\n            if (currentBlockStatus == BlockStatus.Checkable) {\n                bytes32 answerBlockHash = getAnswerBlockHash(b.answerBlockNumber);\n                currentBettingResult = isMatch(b.challenges, answerBlockHash);\n                // if win, bettor gets pot money\n                if (currentBettingResult == BettingResult.Win) {\n                    // transfer pot money to winner\n                    transferAmount =  transferAfterPayingFee(b.bettor, _pot+BET_AMOUNT);\n                    // make pot money to zero\n                    _pot = 0;\n                    // emit Win event\n                    emit WIN(cur, b.bettor, transferAmount, b.challenges, answerBlockHash[0], b.answerBlockNumber);\n                }\n\n                // if fail, bettor's money goes to pot\n                if (currentBettingResult == BettingResult.Fail) {\n                    // pot = pot + BET_AMOUNT\n                    _pot += BET_AMOUNT;\n                    // emit Fail event\n                    emit FAIL(cur, b.bettor, 0, b.challenges, answerBlockHash[0], b.answerBlockNumber);\n                }\n\n                // if draw, refund bettor's money\n                if (currentBettingResult == BettingResult.Win) {\n                    // transfer only BET_AMOUNT\n                    transferAmount = transferAfterPayingFee(b.bettor, BET_AMOUNT);\n                    \n                    // emit Draw event\n                    emit DRAW(cur, b.bettor, transferAmount, b.challenges, answerBlockHash[0], b.answerBlockNumber);\n                }\n            }\n            //not revealed\n            if (currentBlockStatus == BlockStatus.NotRevealed) {\n                break;\n            }\n            //block limit passed\n            if (currentBlockStatus == BlockStatus.BlockLimitPassed) {\n                //refund\n                transferAmount = transferAfterPayingFee(b.bettor, BET_AMOUNT);\n\n                //emit refund\n                emit REFUND(cur, b.bettor, transferAmount, b.challenges, b.answerBlockNumber);\n\n            }\n            popBet(cur);\n\n\n        }\n        _head = cur;  // popBet(cur)해서 줄어든 큐에 따라서 헤드도 최신화\n    }\n\n    function getBlockStatus(uint256 answerBlockNumber) internal view returns(BlockStatus) {\n        //  현재 블록에서, 큐에 담겨있는 베팅의 당첨 여부를 알 수 있는 경우\n        if (block.number > answerBlockNumber && block.number - BLOCK_LIMIT < answerBlockNumber) {\n            return BlockStatus.Checkable;\n        }\n\n        // 현재 블록이 생성중이라 당첨 여부를 알려 줄 수 없음\n        if (block.number <= answerBlockNumber) {\n            return BlockStatus.NotRevealed;\n        }\n\n        // 너무 옛날 블록에 적힌 베팅 정보라 당첨 여부를 알려 줄 수 없음\n        if (block.number > answerBlockNumber && block.number - BLOCK_LIMIT >= answerBlockNumber) {\n            return BlockStatus.BlockLimitPassed;\n        }\n    }\n\n    function transferAfterPayingFee(address payable addr, uint256 amount) internal returns(uint256) {\n        // uint256 fee = amount/100;\n        uint256 fee = 0;\n\n        uint256 amountWithoutFee = amount - fee;\n\n        //transfer to addr\n        addr.transfer(amountWithoutFee);\n\n        //transfer to owner\n        owner.transfer(fee);\n\n\n        return amountWithoutFee;\n    }\n\n    function setAnswerForTest(bytes32 answer) public returns(bool result) {\n        require(msg.sender == owner, \"Only owner can set the answer for test mode\");\n        answerForTest = answer;\n        return true; \n    }\n\n    function getAnswerBlockHash(uint256 answerBlockNumber) internal view returns(bytes32 answer) {\n        return mode ? blockhash(answerBlockNumber): answerForTest;\n    }\n\n    /**\n     * @dev 정답확인\n     * @param challenges  베팅 글자\n     * @param answer 블록해쉬값\n     * @return 정답결과\n     */\n    function isMatch(bytes1 challenges, bytes32 answer) public pure returns(BettingResult) {\n        bytes1 c1 = challenges;\n        bytes1 c2 = challenges;\n\n        bytes1 a1 = answer[0];\n        bytes1 a2 = answer[0];\n\n        c1 = c1 >> 4; // 0xab -> 0x0a\n        c1 = c1 << 4; // 0x0a -> 0xa0\n\n        a1 = a1 >> 4;\n        a1 = a1 << 4;\n\n        c2 = c2 << 4; // 0xab -> 0xb0\n        c2 = c2 >> 4; // 0xb0 -> 0x0b\n\n        a2 = a2 << 4;\n        a2 = a2 >> 4;\n\n        if (c1 == a1 && c2 == a2) {\n            return BettingResult.Win;\n        }\n\n        if (c1 == a1 || c2 == a2) {\n            return BettingResult.Draw;\n        }\n\n    }\n\n    //distribute, check the answer, give the money to the winner\n\n    function getBetInfo(uint256 index) public view returns(uint256 answerBlockNumber, address bettor, bytes1 challenges) {\n        BetInfo memory b = _bets[index];\n        answerBlockNumber = b.answerBlockNumber;\n        bettor = b.bettor;\n        challenges = b.challenges;\n    }\n\n    function pushBet(bytes1 challenges) internal returns(bool) {    // 큐에 집어넣음, 총 60000가스\n        BetInfo memory b;\n        b.answerBlockNumber = block.number + BET_BLOCK_INTERVAL;    // 32bytes  20000 가스\n        b.bettor = msg.sender;                                      // 20bytes  20000 가스\n        b.challenges = challenges;                                  // byte\n\n        _bets[_tail] = b;   // 위의 변수들이 실제로 블록에 저장되는 연산\n        _tail++;            // 32bytes  20000 가스\n\n        return true; \n    }\n\n    function popBet(uint256 index) internal returns(bool) {\n        delete _bets[index];\n        return true;\n    }\n}",
  "sourcePath": "/Users/oneal.oh/Documents/eth/inbox/lotteryDapp/contracts/Lottery.sol",
  "compiler": {
    "name": "solc",
    "version": "0.5.0+commit.1d4f565a.Emscripten.clang"
  },
  "schemaVersion": "3.0.1",
  "updatedAt": "2022-04-19T07:15:57.181Z",
  "devdoc": {
    "methods": {
      "bet(bytes1)": {
        "details": "베팅을 한다. 유저는 0.005 이더를 보내고, 1바이트 글자를 보낸다 큐에 저장된 베팅정보는 이후 distribute 함수에서 해결된다",
        "params": {
          "challenges": "유저가 보내는 1바이트 글자"
        },
        "return": "함수가 잘 수행되어쓴지 확인하는 boolean 값"
      },
      "distribute()": {
        "details": "베팅결과값을 확인하고 팟머니를 분배 WIN, FAIL, DRAW 에 따른 분배"
      },
      "isMatch(bytes1,bytes32)": {
        "details": "정답확인",
        "params": {
          "answer": "블록해쉬값",
          "challenges": "베팅 글자"
        },
        "return": "정답결과"
      }
    }
  },
  "userdoc": {
    "methods": {}
  }
}